:100000000C942A000C9441000C943F000C943F0087
:100010000C943F000C943F000C943F000C943F0064
:100020000C943F000C943F000C943F000C943F0054
:100030000C943F000C943F000C943F000C943F0044
:100040000C943F000C943F000C943F000C943F0034
:100050000C943F0011241FBECFE5D8E0DEBFCDBF1A
:1000600013E0A0E6B0E0EEECF4E102C005900D92E2
:10007000A23DB107D9F70E9415050C94650A0C94AE
:1000800000001F920F920FB60F9211242F933F93EF
:100090004F935F936F937F938F939F93AF93BF9390
:1000A000EF93FF9365E081E00E940F0541E066E079
:1000B00081E00E94850081EC93E00E9436048091EB
:1000C00060008130B9F441E066E00E94EE001092D9
:1000D0006000FF91EF91BF91AF919F918F917F91C0
:1000E0006F915F914F913F912F910F900FBE0F90A5
:1000F0001F9018958111EDCF40E066E081E00E94ED
:10010000EE0081E080936000E4CF8130F9F030F0C0
:100110008230A1F1833009F449C00895413051F48F
:100120008AB321E030E001C0220F6A95EAF7822B02
:100130008ABB0895411145C02AB381E090E001C017
:10014000880F6A95EAF780958223F2CF413051F407
:1001500087B321E030E001C0220F6A95EAF7822BD5
:1001600087BB089541112DC027B381E090E001C005
:10017000880F6A95EAF780958223F2CF413051F4D7
:1001800084B321E030E001C0220F6A95EAF7822BA8
:1001900084BB0895411115C024B381E090E001C0F3
:1001A000880F6A95EAF780958223F2CF413051F4A7
:1001B00081B321E030E001C0220F6A95EAF7822B7B
:1001C00081BB08954111FDCF21B381E090E001C0D2
:1001D000880F6A95EAF780958223F2CF8130F9F093
:1001E00030F08230A1F1833009F449C008954130E4
:1001F00051F48BB321E030E001C0220F6A95EAF799
:10020000822B8BBB0895411145C02BB381E090E058
:1002100001C0880F6A95EAF780958223F2CF4130BA
:1002200051F488B321E030E001C0220F6A95EAF76B
:10023000822B88BB089541112DC028B381E090E046
:1002400001C0880F6A95EAF780958223F2CF41308A
:1002500051F485B321E030E001C0220F6A95EAF73E
:10026000822B85BB0895411115C025B381E090E034
:1002700001C0880F6A95EAF780958223F2CF41305A
:1002800051F482B321E030E001C0220F6A95EAF711
:10029000822B82BB08954111FDCF22B381E090E013
:1002A00001C0880F6A95EAF780958223F2CF8130EA
:1002B00081F030F0823079F0833079F080E0089579
:1002C00089B390E002C0959587956A95E2F78170B1
:1002D000089586B3F6CF83B3F4CF80B3F2CF379AC5
:1002E0003E9A3F9A389839983A983B983C983D986E
:1002F000359833983098319A329A0895369A3699CB
:10030000FECF84B195B1089585B78E7F85BF85B73F
:10031000826085BF08958BB780648BBF08958BB7CB
:100320008F7B8BBF08958AB780648ABF08958FB78B
:1003300080688FBF08958FB78F778FBF089583B779
:100340008F7B83BF83B7877F83BF83B78F7E83BF56
:1003500083B78F7D83BF83B7816083BF83B78D7F72
:1003600083BF83B7846083BF89B78E7F89BF89B716
:100370008D7F89BF88B7816088BF88B7826088BF5A
:1003800012BE1CBE089582BF08958CBF089589B720
:10039000816089BF089589B78E7F89BF089589B725
:1003A000826089BF089589B78D7F89BF0895889835
:1003B000899A8AB188618AB980B5866880BD83E3ED
:1003C00089B910BC08955F9BFECF8CB10895FC01E4
:1003D0009191911101C008955D9BFECF9CB9F8CF1A
:1003E0006D987098689A699A6C9A6B986A986E98EA
:1003F00008958FB9779BFECF8FB10895E199FECF15
:100400009FBB8EBBE09A8DB30895E199FECF460F56
:10041000571FFB01861B970BE417F50709F4089596
:100420009C012E0F3F1F3FBB2EBBE09A2DB32193A3
:10043000F3CFE199FECF9FBB8EBBE09A8DB38617B9
:1004400019F06DBBE29AE19A0895460F571FFB0120
:100450009C01261B370BE417F50709F40895E19971
:10046000FECFC9018E0F9F1F9FBB8EBBE09A8DB33D
:100470009191891781F39DBBE29AE19AECCF40E01C
:1004800063E083E00E94850040E066E083E00E9434
:10049000850040E065E083E00E94850040E064E084
:1004A00083E00E94850041E060E082E00E948500D8
:1004B00041E061E082E00E94850041E062E082E08C
:1004C0000E94850041E063E082E00E94850041E0F7
:1004D00063E083E00E94EE0041E066E083E00E947A
:1004E000EE0041E065E083E00E94EE0041E064E060
:1004F00083E00C94EE00CF9340E060E082E00E9445
:10050000EE0041E061E082E00E94EE0041E062E046
:1005100082E00E94EE0041E063E082E00E94EE0093
:1005200063E083E00E945701C7E38823A9F066E0F7
:1005300083E00E945701C8E3882371F065E083E0FF
:100540000E945701C9E3882339F064E083E00E94E8
:100550005701CFE28111C0E041E060E082E00E94FB
:10056000EE0040E061E082E00E94EE0041E062E0E7
:1005700082E00E94EE0041E063E082E00E94EE0033
:1005800063E083E00E945701882309F475C066E0A8
:1005900083E00E945701882309F470C065E083E07E
:1005A0000E945701882309F46BC064E083E00E9435
:1005B0005701811101C0CAE241E060E082E00E947F
:1005C000EE0041E061E082E00E94EE0040E062E087
:1005D00082E00E94EE0041E063E082E00E94EE00D3
:1005E00063E083E00E945701882309F44BC066E072
:1005F00083E00E945701882309F446C065E083E048
:100600000E945701882309F441C064E083E00E94FE
:100610005701811101C0CDE241E060E082E00E941B
:10062000EE0041E061E082E00E94EE0041E062E025
:1006300082E00E94EE0040E063E082E00E94EE0073
:1006400063E083E00E945701882311F166E083E0B4
:100650000E9457018823F1F065E083E00E94570172
:100660008823D1F064E083E00E945701811101C02A
:10067000CBE28C2FCF910895C4E39ECFC5E39CCFEE
:10068000C6E39ACFC1E3C8CFC2E3C6CFC3E3C4CFAA
:10069000CFE2EFCFC0E3EDCFCDE3EBCFCF93C82FC9
:1006A00041E061E081E00E94EE0040E062E081E034
:1006B0000E94EE00CBBB41E063E081E00E94EE00CF
:1006C0008FE99FE00197F1F700C0000040E063E090
:1006D00081E00E94EE008FE99FE00197F1F700C0F2
:1006E0000000C295C07FCBBB41E063E081E00E9487
:1006F000EE008FE99FE00197F1F700C0000040E0B5
:1007000063E081E00E94EE008FE99FE00197F1F73E
:1007100000C00000CF910895CF93C82F40E061E062
:1007200081E00E94EE0040E062E081E00E94EE0085
:10073000CBBB41E063E081E00E94EE008FE99FE0E7
:100740000197F1F700C0000040E063E081E00E9403
:10075000EE008FE99FE00197F1F700C00000C2951D
:10076000C07FCBBB41E063E081E00E94EE008FE9F7
:100770009FE00197F1F700C0000040E063E081E0F6
:100780000E94EE008FE99FE00197F1F700C00000A2
:10079000CF91089541E061E081E00E94850041E051
:1007A00062E081E00E94850041E063E081E00E9418
:1007B000850041E064E080E00E94850041E065E062
:1007C00080E00E94850041E066E080E00E948500B4
:1007D00041E067E080E00E9485002FE785EB91E033
:1007E000215080409040E1F700C0000083E30E9468
:1007F0008C038FE39FE10197F1F700C0000082E3D3
:100800000E948C038FE39FE10197F1F700C0000085
:1008100088E20E948C038FE39FE10197F1F700C00B
:10082000000081E00E948C038FE39FE10197F1F7C4
:1008300000C0000082E00E948C038FE39FE10197DB
:10084000F1F700C000008CE00E948C038FE39FE171
:100850000197F1F700C0000086E00E948C038FE34F
:100860009FE10197F1F700C0000008950F931F93D7
:10087000CF938C01C0E0F801EC0FF11D8081811154
:1008800004C0CF911F910F9108950E944E03CF5F36
:10089000F2CF81E00E948C038FE39FE10197F1F793
:1008A00000C000000895882321F0813031F080E8F5
:1008B00002C080E8860F0C948C0380ECFBCF0F9372
:1008C0001F93CF93DF938B010E948C03E801085F95
:1008D0001F4F89910E944E03C017D107D1F7DF91B6
:1008E000CF911F910F910895442341F0FC01908115
:1008F000FB018081981302C081E00895089541E0D2
:100900000C94850041E00C94EE0040E00C94EE0065
:100910000E947E01BC0190E080E00E946A0920E014
:1009200030E040E85EE30E94D0090E943B09CB0121
:10093000089541E060E081E00E94850041E067E0C9
:1009400081E00E94850041E064E082E00E94850031
:1009500041E065E082E00E94850041E061E082E0E4
:100960000E94850041E063E082E00C9485006115FF
:100970007105F9F4009779F441E060E081E00E94AC
:10098000EE0041E064E082E00E94EE0040E065E0BD
:1009900082E00C94EE00019761F541E060E081E0B7
:1009A0000E94EE0040E064E082E00E94EE0041E040
:1009B000EECF61307105E9F4009769F441E067E03A
:1009C00081E00E94EE0041E061E082E00E94EE00E2
:1009D00040E063E0DDCF019761F441E067E081E052
:1009E0000E94EE0040E061E082E00E94EE0041E003
:1009F000F0CF0895892B79F440E060E081E00E9417
:100A0000EE0040E064E082E00E94EE0040E065E03D
:100A100082E00C94EE00089541E00C94850041E0E2
:100A20000C94EE0040E00C94EE00CF93DF93CDB732
:100A3000DEB728970FB6F894DEBF0FBECDBF0E9479
:100A4000CA030E943F0223E030E050E040E070E043
:100A500060E090E080E00E94D7010E946F010E9458
:100A6000990465E081E00E940C050E9497010E94B4
:100A700084010E948B0167E083E00E947F0441E0D3
:100A800066E082E00E94850041E067E082E00E942B
:100A9000850041E062E080E00E94850085E690E00C
:100AA0000E94360460E081E00E94530486E790E0F3
:100AB0000E9436042FEF83ED90E321508040904058
:100AC000E1F700C000000E94490480E091E00E942C
:100AD000FE01813009F426C182E890E00E943604CC
:100AE00060E081E00E9453048CE890E00E943604AC
:100AF000EFEFF3ED20E3E150F0402040E1F700C0DC
:100B000000000E94490487E990E00E94360460E0FA
:100B100081E00E94530486EA90E00E9436048091AE
:100B2000610090916200A0916300B091640089839C
:100B30009A83AB83BC838E010F5F1F4F68013BE03C
:100B4000F32E58010E947B028823E1F3F601819382
:100B50006F010E944E03FFEF25EA8EE0F150204026
:100B60008040E1F700C000006F2D81E00E94530437
:100B70008AE20E944E039FEFE1EEF4E09150E040E4
:100B8000F040E1F700C00000F3942FE0F212DACF5A
:100B900044E050E0B80182E091E00E94250261E06B
:100BA00080E091E00E9419020E94490482EB90E0EB
:100BB0000E9436048FEF99E6E8E181509040E040D2
:100BC000E1F700C000000E9449048DEB90E00E9414
:100BD000360460E081E00E9453048CEC90E00E94B7
:100BE0003604FFEF23ED80E3F15020408040E1F731
:100BF00000C000002BE0F22E0E947B028823E1F36C
:100C0000F80181938F010E944E03FFEF25EA8EE0E9
:100C1000F15020408040E1F700C000006F2D81E0DE
:100C20000E9453048AE20E944E039FEFE1EEF4E03B
:100C30009150E040F040E1F700C00000F3942FE055
:100C4000F212DACF44E050E0B50186E091E00E9474
:100C5000250261E081E091E00E9419020E944904AE
:100C600082EB90E00E9436048FEF95EAEEE081502F
:100C70009040E040E1F700C000000E94490460E0BD
:100C80008AE091E00E94190210E08090610090904B
:100C90006200A0906300B09064001130E9F40E94FB
:100CA000490488ED90E00E94360460E081E00E94F3
:100CB000530485EE90E00E943604FFEF23E284EFB8
:100CC000F15020408040E1F700C0000060E08AE081
:100CD00091E00E94190210E00E94490484EF90E024
:100CE0000E94360460E081E00E94530481E091E0BC
:100CF0000E9436040E947B028823E1F390ED980F56
:100D00009230E8F00E94490481E191E00E943604AB
:100D10009FEFE3EDF0E39150E040F040E1F700C0D9
:100D20000000BBCF81E091E00E94FE01813009F01C
:100D3000D3CE8AE091E00E94FE01182FA6CF8D82CB
:100D40009E82AF82B88689829A82AB82BC8292E30D
:100D5000F92E00E0813309F4F2C00E9449048CE1CD
:100D600091E00E94360460E081E00E94530487E233
:100D700091E00E9436042FEF83EC99E021508040EF
:100D80009040E1F700C00000FE0135966F011BE0C6
:100D90000E947B028823E1F3F60181936F010E9498
:100DA0004E03FFEF25EA8EE0F15020408040E1F74E
:100DB00000C00000612F81E00E9453048AE20E947B
:100DC0004E031F5F1F3021F744E050E0BE016F5F0C
:100DD0007F4F82E091E00E94050244E0BE016F5F18
:100DE0007F4FCE0105960E947404182F813009F0C0
:100DF0005FC00E94490483E391E00E94360460E0F2
:100E000081E00E9453048EE391E00E9436049FEF3C
:100E1000E9E6F8E19150E040F040E1F700C0000061
:100E20000E94490489E491E00E94E70187E591E08E
:100E30000E94E70183E791E00E94E70183E891E0E7
:100E40000E94E70184E991E00E94E70185EA91E0D0
:100E50000E94E70187EB91E00E94E70186EC91E0B8
:100E60000E94E70186ED91E00E94E70189EE91E0A2
:100E70000E94E7018DEF91E00E94E70180E192E09E
:100E80000E94E701113009F414C10AE010E00E9449
:100E9000E301803309F064C10E9449048BE793E0C9
:100EA0000E94360441E067E082E00E94EE00EFCF4E
:100EB0000F5F0E94490484E292E00E94360460E0E1
:100EC00081E00E9453048FE292E00E9436048F2D4D
:100ED0000E944E032FEF83ED90E32150804090401D
:100EE000E1F700C000000E944904FA94033008F4BE
:100EF00034CF61E08AE091E00E941902D0CE0F5F0A
:100F00000E94490484E292E00E94360460E081E09D
:100F10000E9453048FE292E00E9436048F2D0E94BB
:100F20004E032FEF83ED90E3215080409040E1F796
:100F300000C000000E944904FA940330D0F60E94D9
:100F400049048AE392E00E94360460E081E00E9456
:100F5000530487E291E00E943604EFEFF3EC29E0BE
:100F6000E150F0402040E1F700C00000CE010596BE
:100F70006C011BE00E947B028823E1F3F601819360
:100F80006F010E944E03FFEF25EA8EE0F1502040F2
:100F90008040E1F700C00000612F81E00E9453040F
:100FA0008AE20E944E031F5F1F3021F744E050E0A9
:100FB000BE016F5F7F4F86E091E00E94050244E032
:100FC000BE016F5F7F4FCE0105960E947404813091
:100FD00009F095CF0E94490483E391E00E94360412
:100FE00060E081E00E94530485E492E00E943604B0
:100FF0009FEFE9E6F8E19150E040F040E1F700C0F2
:1010000000000E94490480E592E00E94E7018FE51C
:1010100092E00E94E70180E792E00E94E70182E807
:1010200092E00E94E70181E992E00E94E70181EAF3
:1010300092E00E94E70184EB92E00E94E70188ECD5
:1010400092E00E94E70183ED92E00E94E70187EEC3
:1010500092E00E94E70112E015CF813341F40E9433
:1010600049048AE093E00E94360440E02DC08233B8
:1010700049F40E94490489E193E00E94360441E06A
:1010800067E023C0833341F40E94490489E193E07F
:101090000E94360440E0F4CF8433D9F40E9449041E
:1010A00089E293E00E94360441E062E080E00E9421
:1010B00085000E94E301803381F60E9449048CEF91
:1010C00092E00E94360441E066E082E00E94EE0079
:1010D000F0CF853329F40E94490485E393E0E2CF01
:1010E0008633F1F40E94490481E493E00E943604BF
:1010F00070E060E090E080E00E94B704EFEFF9E676
:1011000028E1E150F0402040E1F700C000008FE40A
:1011100093E00E94360490E080E00E94FA04C9CF78
:10112000873319F40E944904F2CF883369F40E948E
:1011300049048EE593E00E94360461E070E090E09F
:1011400080E00E94B704B5CF893309F0B2CF0E9486
:1011500049048CE693E00E94360481E090E0DDCF04
:10116000813341F40E94490489E193E00E943604EE
:1011700040E099CE823359F40E9449048AE893E012
:101180000E94360467E083E00E94820480CE8333AD
:1011900059F40E94490485E393E00E94360467E015
:1011A00083E00E94850473CE843369F40E9449046D
:1011B00081E493E00E94360470E060E090E080E01B
:1011C0000E94B70464CE853359F40E9449048FE429
:1011D00093E00E94360490E080E00E94FA0457CE2B
:1011E0008633F1F40E9449040E9488046C0185E969
:1011F00093E00E9436046CE080E00E9453048EE18C
:101200000E944E03C601B8010E942709805D0E941A
:101210004E038FED0E944E0383E40E944E0337CEAF
:10122000873351F40E94490482EA93E00E94360415
:1012300041E062E080E039CE883309F028CE0E9498
:10124000490481EB93E00E94360440E0F2CFAA1BF0
:10125000BB1B51E107C0AA1FBB1FA617B70710F0A1
:10126000A61BB70B881F991F5A95A9F780959095D3
:10127000BC01CD0108950E94AF0988F09F5798F0F6
:10128000B92F9927B751B0F0E1F0660F771F881F8B
:10129000991F1AF0BA95C9F714C0B13091F00E94A5
:1012A000C909B1E008950C94C909672F782F8827E0
:1012B000B85F39F0B93FCCF3869577956795B395CC
:1012C000D9F73EF490958095709561957F4F8F4F3B
:1012D0009F4F0895E89409C097FB3EF49095809540
:1012E000709561957F4F8F4F9F4F9923A9F0F92FEC
:1012F00096E9BB279395F695879577956795B7956A
:10130000F111F8CFFAF4BB0F11F460FF1BC06F5F4F
:101310007F4F8F4F9F4F16C0882311F096E911C061
:10132000772321F09EE8872F762F05C0662371F082
:1013300096E8862F70E060E02AF09A95660F771F96
:10134000881FDAF7880F9695879597F9089557FDC6
:101350009058440F551F59F05F3F71F04795880F23
:1013600097FB991F61F09F3F79F0879508951216BA
:1013700013061406551FF2CF4695F1DF08C0161666
:1013800017061806991FF1CF869571056105089417
:101390000895E894BB2766277727CB0197F908952E
:1013A0000E94E3090C94540A0E94460A38F00E94F5
:1013B0004D0A20F0952311F00C943D0A0C94430A39
:1013C00011240C94CA090E94A70970F3959FC1F3D8
:1013D000950F50E0551F629FF001729FBB27F00DE3
:1013E000B11D639FAA27F00DB11DAA1F649F662738
:1013F000B00DA11D661F829F2227B00DA11D621F87
:10140000739FB00DA11D621F839FA00D611D221F40
:10141000749F3327A00D611D231F849F600D211D24
:10142000822F762F6A2F11249F5750409AF0F1F0A7
:1014300088234AF0EE0FFF1FBB1F661F771F881F10
:1014400091505040A9F79E3F510580F00C943D0A01
:101450000C94CA095F3FE4F3983ED4F386957795E0
:101460006795B795F795E7959F5FC1F7FE2B880FB6
:10147000911D9695879597F9089597F99F6780E84C
:1014800070E060E008959FEF80EC089500240A94D6
:101490001616170618060906089500240A9412164F
:1014A0001306140605060895092E0394000C11F482
:1014B000882352F0BB0F40F4BF2B11F460FF04C02F
:0E14C0006F5F7F4F8F4F9F4F0895F894FFCFBF
:1014CE0001FFFFFFFF77656C636F6D6520746F2002
:1014DE00736D61727400686F6D65207379737465D6
:1014EE006D006C6F67696E20666F7200666972734D
:1014FE00742074696D65007365742061646D696E26
:10150E0020706173730041646D696E207061737336
:10151E003A0070617373207361766564007365744D
:10152E0020677565737420706173730067756573DA
:10153E007420706173733A00426C6F636B65642044
:10154E006D6F646500776169742031302073656357
:10155E006F6E640073656C656374206D6F64653ABD
:10156E0000303A61646D696E20313A677565737447
:10157E000077726F6E67204D6F64650041646D6910
:10158E006E206D6F646500656E7472652070617398
:10159E00733A0072696768742070617373004164F6
:1015AE006D696E204D6F64650041646D696E204DEE
:1015BE006F6465200D0A00456E74657220796F7533
:1015CE00722063686F69636520706C656173652056
:1015DE000D0A00303A4F6E206B69746368656E2099
:1015EE000D0A00313A6F6666206B69746368656E2A
:1015FE00200D0A00323A4F6E2062617468726F6F6E
:10160E006D200D0A00333A6F66662062617468724F
:10161E006F6F6D200D0A00343A4F70656E204F7655
:10162E00656E200D0A00353A436C6F7365204F7658
:10163E00656E200D0A00363A6D6F746F7220312080
:10164E006973206F6E200D0A00373A6D6F746F72DA
:10165E002031206973206F6666200D0A00383A6DBE
:10166E006F746F722032206973206F6E200D0A0026
:10167E00393A6D6F746F722032206973206F66660F
:10168E00200D0A0057726F6E6720706173730074BD
:10169E0072696573206C6566740067756573742076
:1016AE006D6F6465006775657374204D6F646500BA
:1016BE00206775657374206D6F6465200D0A0030A8
:1016CE003A4F6E2062617468726F6F6D200D0A0062
:1016DE00313A6F66662062617468726F6F6D200DAD
:1016EE000A00323A4F70656E204F76656E200D0AF5
:1016FE0000333A436C6F7365204F76656E200D0A8A
:10170E0000343A6D6F746F722031206973206F6EE2
:10171E00200D0A00353A6D6F746F72203120697397
:10172E00206F6666200D0A00363A2074656D7020B3
:10173E000D0A00373A206F70656E20616972206362
:10174E006F6E64200D0A00383A20636C6F7365204B
:10175E0061697220636F6E64200D0A006B69746399
:10176E0068656E206973206F6E006B6974636865BF
:10177E006E206973206F66660062617468726F6FA7
:10178E006D206973206F6666004F76656E206973F3
:10179E00206F6666006F76656E206973206F6666D1
:1017AE00006D6F746F722031206973206F6E006D43
:1017BE006F746F722031206973206F6666006D6FD3
:1017CE00746F722032206973206F6E006D6F746FAC
:1017DE00722032206973206F6666006261746872CF
:1017EE006F6F6D206973206F6E004F76656E206986
:1017FE0073206F6E0074656D7065726174757265BD
:10180E003D0061697220636F6E64206973206F6E94
:10181E000061697220636F6E64206973206F666663
:10182E0000456D657267656E637920416C61726DFE
:02183E000000A8
:00000001FF
